:020000040800F2
:1000000000000820A51C0008291C00082B1C000863
:100010002D1C00082F1C0008311C000800000000E7
:10002000000000000000000000000000331C000879
:10003000351C000800000000371C0008391C0008AF
:10004000F51C0008F51C0008F51C0008F51C00084C
:10005000F51C0008F51C0008F51C0008F51C00083C
:10006000F51C0008F51C0008F51C0008F51C00082C
:10007000F51C0008F51C0008F51C0008F51C00081C
:10008000F51C0008F51C0008F51C0008F51C00080C
:10009000F51C0008F51C0008F51C0008F51C0008FC
:1000A000F51C0008F51C0008F51C0008F51C0008EC
:1000B000F51C0008F51C0008F51C0008F51C0008DC
:1000C000F51C0008F51C0008F51C0008F51C0008CC
:1000D000F51C0008F51C0008F51C0008F51C0008BC
:1000E000F51C0008F51C0008F51C0008F51C0008AC
:1000F000F51C0008F51C0008F51C0008F51C00089C
:10010000F51C0008F51C0008F51C0008F51C00088B
:10011000F51C0008F51C0008F51C0008F51C00087B
:10012000451C0008F51C0008F51C0008F51C00081B
:10013000F51C0008F51C0008F51C0008F51C00085B
:10014000F51C0008F51C0008F51C0008F51C00084B
:10015000F51C0008F51C0008F51C0008F51C00083B
:10016000F51C0008F51C0008F51C0008F51C00082B
:10017000F51C0008F51C0008F51C00080000000034
:10018000F51C0008F51C0008F51C0008F51C00080B
:10019000F51C0008F51C0008F51C0008F51C0008FB
:1001A000F51C0008F51C0008F51C0008F51C0008EB
:1001B000F51C0008F51C0008F51C0008F51C0008DB
:1001C000F51C0008F51C000800000000F51C0008E4
:1001D000F51C0008F51C0008F51C0008F51C0008BB
:1001E000F51C0008F51C0008F51C0008F51C0008AB
:0801F000F51C0008F51C0008D5
:1001F80010B5054C237833B9044B13B10448AFF359
:1002080000800123237010BD1400002000000000AE
:10021800401D000808B5034B1BB103490348AFF361
:10022800008008BD0000000018000020401D0008E4
:1002380053B94AB9002908BF00281CBF4FF0FF3145
:100248004FF0FF3000F072B9ADF1080C6DE904CE43
:1002580000F006F8DDF804E0DDE9022304B0704799
:100268002DE9F047089E04468846002B4BD18A4268
:10027800154667D9B2FA82F24AB1C2F1200701FAEB
:1002880002F320FA07F7954047EA030894404FEA3B
:10029800154E230CB8FBFEF71FFA85FC0EFB1788DA
:1002A80043EA084307FB0CF1994209D9EB1807F117
:1002B800FF3080F01B81994240F21881023F2B44A5
:1002C8005B1AA4B2B3FBFEF00EFB103344EA0344FE
:1002D80000FB0CFCA44509D92C1900F1FF3380F070
:1002E8000781A44540F2048102382C4440EA0740C3
:1002F800A4EB0C0400271EB1D4400023C6E9004338
:100308003946BDE8F0878B4209D9002E00F0EB8012
:100318000027C6E9000138463946BDE8F087B3FA38
:1003280083F7002F47D18B4202D3824200F2FA8032
:10033800841A61EB030301209846002EE0D0C6E939
:100348000048DDE702B9FFDEB2FA82F2002A40F087
:100358008F80491B4FEA154E1FFA85F80127B1FB1C
:10036800FEFC230C0EFB1C1143EA014308FB0CF1B5
:10037800994207D9EB180CF1FF3002D2994200F2EA
:10038800CD808446591AA3B2B1FBFEF00EFB1014BF
:1003980043EA044408FB00F8A04507D92C1900F1EA
:1003A800FF3302D2A04500F2B6801846A4EB080439
:1003B80040EA0C409FE7C7F1200CBB4022FA0CFE34
:1003C8004EEA030E01FA07F420FA0CF521FA0CF3B1
:1003D8004FEA1E482543B3FBF8F92C0C08FB1933E8
:1003E8001FFA8EFA44EA034309FB0AF49C4202FA14
:1003F80007F200FA07F10BD91EEB030309F1FF30EE
:1004080080F087809C4240F28480A9F102097344FD
:100418001B1BADB2B3FBF8F008FB103345EA0344ED
:1004280000FB0AFAA24508D91EEB040400F1FF33C9
:100438006BD2A24569D90238744440EA0940A0FB4E
:100448000289A4EB0A044C45C2464B4654D351D00A
:10045800002E69D0B1EB0A0564EB030404FA0CFC26
:10046800FD40FC404CEA0505C6E90054002747E773
:10047800C2F1200320FA03F7954001FA02F021FAAD
:1004880003F34FEA154E3843010CB3FBFEF71FFA8E
:1004980085F80EFB173341EA034107FB08F38B424B
:1004A80004FA02F407D9691807F1FF3C2FD28B42EE
:1004B8002DD9023F2944CB1A81B2B3FBFEF00EFBC3
:1004C800103341EA034100FB08F38B4207D969184E
:1004D80000F1FF3C17D28B4215D902382944C91ABA
:1004E80040EA07473BE73746304609E70746E7E66D
:1004F8001846FBE64145ABD2B8EB020A69EB0E029F
:1005080001381346A4E76046E9E7184695E76746C9
:10051800D1E781467CE702382C4447E7ACF1020C6E
:100528002B442FE7384608E73746E9E6704700BF0F
:1005380010B504460E4B18784FF47A73B3FBF0F3FA
:100548000C4A1068B0FBF3F000F000FB68B90F2C00
:1005580001D901200AE0002221464FF0FF3000F0C7
:10056800B7FA034B5C60002000E0012010BD00BF1B
:10057800000000201000002008B5032000F096FAC3
:100588000020FFF7D5FF01F003FB002008BD0000A5
:10059800034A1168034B1B780B441360704700BF74
:1005A8008000002000000020014B1868704700BF41
:1005B80080000020494B5A6822F440325A605A6839
:1005C80041680A435A600268536823F48073536091
:1005D80002685368016943EA01235360026853685B
:1005E80023F0407353600268536881680B4353607B
:1005F8000268936823F40063936002689368C16893
:100608000B439360826A364B9A4249D002689368DA
:1006180023F07063936002689368816A0B43936068
:100628000268936823F04053936002689368C16A34
:100638000B4393600268936823F002039360026897
:100648009368816943EA41039360036A002B32D1BE
:100658000268536823F4006353600268D36A23F482
:100668007003D3620168CB6AC269013A43EA025354
:10067800CB620268936823F40073936002689368FE
:10068800016B43EA412393600268936823F4806313
:10069800936002689368416943EA812393607047D5
:1006A8000268936823F0706393600268936823F08C
:1006B80040539360BEE70268536843F40063536095
:1006C8000268536823F46043536001684B68426AC8
:1006D800013A43EA42334B60BFE700BF00230140C1
:1006E8000100000F20B310B50446036C43B1236C1E
:1006F80013F0100F0AD00120002384F83C3010BDFD
:10070800436480F83C3001F0C7F8F0E7226C094BED
:10071800134043F0020323642046FFF74BFF0020F9
:100728006064236C23F0030343F001032364E3E7CD
:1007380001207047FDEEFFFF30B583B00023019321
:1007480090F83C30012B7ED0012380F83C300468BF
:10075800A36813F0010F13D1A36843F00103A3604A
:100768003D4B1C683D4BA3FB0434A40C04EB440430
:10077800019402E0019C013C0194019C002CF9D1F8
:1007880003689C6814F0010F5FD0056C344C2C4052
:1007980044F4807404645B6813F4806F05D0036CC0
:1007A80023F4405343F480530364036C13F4805FD1
:1007B80036D0436C23F006034364134604460022F4
:1007C80080F83C20826B2748D063A26B26481064CF
:1007D800A26B2648D06422686FF02200106025685A
:1007E800686840F0806068602568A86840F4807098
:1007F800A86020680A4600F14C01A06B00F0B2FA2C
:100808001B4B5B6813F01F0F0DD123689A6812F019
:10081800405F1DD19A6842F080429A60002015E03E
:1008280000234364C9E72368124A934201D0002099
:100838000CE09A6812F0405F0CD19A6842F080424E
:100848009A60002002E0022000E0002003B030BDE2
:100858000020FBE70020F9E71000002083DE1B439F
:10086800FEF8FFFF81080008E5080008F108000805
:10087800002301400020014008B5836B1A6C12F078
:10088800500F03D09B6BDB6C984708BD1A6C42F481
:1008980000721A641A68916811F0405F19D1996959
:1008A800B9B9D16A11F4700F03D0916811F4806F4F
:1008B8000FD1516821F0200151601A6C22F4807226
:1008C8001A641A6C12F4805F03D11A6C42F00102A8
:1008D8001A64184601F094F8D7E7704708B5806B9A
:1008E800FFF7FBFF08BD704708B5806B4023036422
:1008F800436C43F004034364FFF7F5FF08BD0000B1
:1009080030B482B00023019390F83C30012B00F002
:10091800C080012380F83C300B68092B22D9056878
:10092800EA689BB203EB43031E3B072404FA03F374
:1009380022EA0303EB600B68574A93420BD0056821
:10094800EA688C689BB203EB43031E3B04FA03F38B
:100958001343EB601BE00268D3688C6843EA0463C6
:10096800D36014E005682A699BB203EB43030724AC
:1009780004FA03F322EA03032B6105682A698C68E9
:100988000B8803EB430304FA03F313432B614B680F
:10099800062B24D805686A6B03EB8303053B1F24E9
:1009A80004FA03F322EA03036B6305686A6B4B6876
:1009B80003EB8303053B0C8804FA03F313436B63CF
:1009C8000268364B9A423AD00268344B9A423FD07A
:1009D800002380F83C30184602B030BC70470C2B1E
:1009E80016D805682A6B03EB8303233B1F2404FAFC
:1009F80003F322EA03032B6305682A6B4B6803EBB6
:100A08008303233B0C8804FA03F313432B63D7E7D0
:100A18000568EA6A03EB8303413B1F2404FA03F3E6
:100A280022EA0303EB620568EA6A4B6803EB830377
:100A3800413B0C8804FA03F31343EB62C0E70B68ED
:100A4800122BC1D1164A536843F480035360BBE7A5
:100A58000B68114A112B18BF9342B9D1104A536839
:100A680043F4000353600A680B4B9A42B0D10D4B14
:100A78001B680D4AA2FB03239B0C03EB83035A005C
:100A8800019202E0019B013B0193019B002BF9D1EC
:100A98009EE70220A0E700BF1200001000200140DE
:100AA800002301401000002083DE1B430649CB6869
:100AB80023F4E0631B041B0C000200F4E060034312
:100AC800024A1A43CA60704700ED00E00000FA05C8
:100AD80030B4154BDB68C3F30223C3F10704042CBD
:100AE80028BF04241D1D062D14D9033B4FF0FF35E4
:100AF80005FA04F421EA0401994005FA03F322EA0D
:100B080003031943002807DB0901C9B2074B19542D
:100B180030BC70470023E9E700F00F000901C9B2B3
:100B2800034B1954F4E700BF00ED00E000E400E0D7
:100B380014ED00E000F01F02400901239340024A2F
:100B480042F82030704700BF00E100E00138B0F102
:100B5800807F0AD2064B5860064AF02182F823109B
:100B68000020986007221A6070470120704700BF74
:100B780010E000E000ED00E0042805D0054A136805
:100B880023F0040313607047024A136843F0040318
:100B98001360704710E000E0704708B5FFF7FCFFEE
:100BA80008BD30B405682C6824F480242C600468DF
:100BB80063608368402B05D0036899600368DA6036
:100BC80030BC704703689A600368D960F8E7000092
:100BD8000268D3B2103B0949A1FB03131B0908495A
:100BE800C95CC165032B04D8064B13408365806D2F
:100BF8007047044B134004338365F8E7ABAAAAAAED
:100C0800581D000800FCFFFF836A826992B9012B16
:100C18000AD01BB1022B01D000207047C36A13F021
:100C2800807F2CD100207047C36AB3F1C07F28D0E1
:100C380000207047B2F5005F05D0022B29D9032B9D
:100C480015D000207047032B03D8DFE803F01C04FD
:100C58001C0A00207047C36A13F0807F15D100205A
:100C68007047C36AB3F1C07F11D000207047C36AD0
:100C780013F0807F01D001207047002070470120C9
:100C880070470120704701207047012070470120FC
:100C9800704701207047000070B50446FFF784FCD8
:100CA800002C5BD00546002384F83430022384F8F6
:100CB80035302268136823F00103136023681A682B
:100CC80012F0010F0AD0FFF76FFC401B0528F5D979
:100CD80020236365032084F8350070BD1A68204816
:100CE80010406168A2680A43E1680A4321690A431F
:100CF80061690A43A1690A43E1690A43216A0A430F
:100D08000243616A04291ED01A602668756925F0B5
:100D18000705636A1D43042B07D1A36A1D43E36AD1
:100D28001BB12046FFF770FF90B975612046FFF7A9
:100D38004FFFE26D3F2393408360002060650123ED
:100D480084F83530C9E7E16A206B01430A43DBE7E1
:100D580040236365012084F83500BEE70120BCE725
:100D68003F8010E038B5856D90F83440012C31D0C3
:100D7800012480F8344090F83540E4B2012C04D0C6
:100D8800002380F83430022038BD0446022084F85D
:100D98003500002060652046FFF703FFE26D3F2322
:100DA8009340AB602268136843F01603136022680F
:100DB800536943F080035361236C23B1226813689D
:100DC80043F0080313602268136843F001031360BB
:100DD8000020D9E70220D7E7F0B583B00446002306
:100DE8000193724B1D68724BA3FB0535AD0A876DE5
:100DF8003E68C26D08239340334210D003681A68D6
:100E080012F0040F0BD01A6822F004021A60C26DA7
:100E180008239340BB60436D43F001034365E26DD3
:100E280001239340334209D02268526912F0800F9F
:100E380004D0BB60636D43F002036365E26D042375
:100E48009340334209D02268126812F0020F04D08E
:100E5800BB60636D43F004036365E26D1023934048
:100E6800334224D02268126812F0080F1FD0BB60EA
:100E780023681A6812F4802F0DD01B6813F4002F12
:100E880004D1236C9BB12046984710E0A36C73B142
:100E9800204698470BE01A6812F4807F03D11A683D
:100EA80022F008021A60236C0BB120469847E26DC5
:100EB80020239340334255D02268126812F0100F55
:100EC80050D0BB6094F83530DBB2052B0ED02368C8
:100ED8001A6812F4802F33D01B6813F4002F2AD11C
:100EE800636C002B3ED0204698473BE0226813688D
:100EF80023F0160313602268536923F080035361BB
:100F0800236CA3B12268136823F008031360E26D11
:100F18003F239340BB60002384F83430012384F8D6
:100F28003530236D002B3FD0204698473CE0A36C1A
:100F3800002BE7D1EBE7E36BA3B12046984711E01C
:100F48001A6812F4807F09D11A6822F010021A6018
:100F5800002384F83430012384F83530E36B0BB177
:100F680020469847636DFBB1636D13F0010F17D0EE
:100F7800052384F835302268136823F001031360D1
:100F8800019B01330193AB4204D823681B6813F01B
:100F9800010FF5D1002384F83430012384F835306B
:100FA800E36C0BB12046984703B0F0BD1000002059
:100FB800B5814E1B00230F2B00F2E280F0B482B003
:100FC80039E0092200E00022B2403A4302346D4E73
:100FD80046F824206C4A1468EA4302EA04064F687B
:100FE80017F4803F01D045EA0406674C2660646820
:100FF80002EA04064F6817F4003F01D045EA0406E8
:10100800614C6660A46802EA04064F6817F4801F02
:1010180001D045EA04065C4CA660E46822404E68AC
:1010280016F4001F01D045EA0402574CE260013370
:101038000F2B00F2A28001229A400C6804EA0205F4
:10104800AA42F4D14C68122C18BF022C10D1DE0829
:10105800083650F826C003F00704A7000F24BC4048
:101068002CEA040C0C69BC4044EA0C0440F8264005
:1010780004685F000326BE40F64306EA040C4C6889
:1010880004F00304BC4044EA0C0404604C6804F116
:10109800FF3C112C18BFBCF1010F01D9122C11D142
:1010A800846806EA040CCC68BC4044EA0C048460FA
:1010B800446824EA020C4C68C4F300129A4042EADD
:1010C8000C024260C26816408A68BA403243C26065
:1010D8004A6812F0805FAAD02C4A546C44F48044C9
:1010E8005464526C02F480420192019A9C08A61C36
:1010F800244A52F8267003F0030296000F22B240E9
:1011080027EA0207224A90423FF45DAF02F5806267
:10111800904222D002F58062904220D002F580628F
:1011280090421ED002F5806290421CD002F5806287
:1011380090421AD002F58062904218D002F580627F
:10114800904216D002F58062904214D002F5806277
:1011580090423FF436AF0A2236E7012234E70222F2
:1011680032E7032230E704222EE705222CE7062285
:101178002AE7072228E7082226E702B0F0BC7047D2
:10118800704700BF00380140003C01400038024071
:101198000000024012B909048161704781617047FB
:1011A80010B582B01B4B1A6C42F080521A641B6C4B
:1011B80003F080530193019B174A136843F480336B
:1011C8001360FFF7F1F90446134B5B6813F4803F93
:1011D80008D1FFF7E9F9001BB0F57A7FF4D90320AD
:1011E80002B010BD0C4A136843F400331360FFF7D4
:1011F800DBF90446084B5B6813F4003F07D1FFF79F
:10120800D3F9001BB0F57A7FF4D90320E8E7002072
:10121800E6E700BF0038024000700040002800F0F8
:10122800DC8170B582B00446036813F0010F29D041
:10123800A24B9B6803F00C03042B1AD09F4B9B68AE
:1012480003F00C03082B0FD06368B3F5803F40D040
:10125800002B54D1994B1A6822F480321A601A680C
:1012680022F480221A6039E0944B5B6813F4800FF3
:10127800EAD0924B1B6813F4003F03D06368002B3D
:1012880000F0AD81236813F0020F75D08B4B9B687B
:1012980013F00C0F5ED0894B9B6803F00C03082BEE
:1012A80053D0E368002B00F08A80844A136843F027
:1012B80001031360FFF778F90546804B1B6813F0AC
:1012C800020F73D1FFF770F9401B0228F5D90320EC
:1012D80088E17A4A136843F48033136063682BB358
:1012E800FFF762F90546754B1B6813F4003FC9D137
:1012F800FFF75AF9401B6428F5D9032072E1B3F5CA
:10130800A02F09D06D4B1A6822F480321A601A682F
:1013180022F480221A60E1E7684B1A6842F48022BE
:101328001A601A6842F480321A60D7E7FFF73CF96E
:101338000546624B1B6813F4003FA3D0FFF734F94E
:10134800401B6428F5D903204CE15C4B5B6813F41F
:10135800800FA6D1594B1B6813F0020F04D0E36825
:10136800012B01D001203DE1544A136823F0F80312
:10137800216943EAC1031360236813F0080F46D0BC
:10138800636983B34D4A536F43F001035367FFF713
:101398000BF90546494B5B6F13F0020F37D1FFF786
:1013A80003F9401B0228F5D903201BE1434A1368BF
:1013B80023F0F803216943EAC1031360DCE73F4ADD
:1013C800136823F001031360FFF7EEF805463B4B63
:1013D8001B6813F0020FCFD0FFF7E6F8401B022876
:1013E800F5D90320FEE0354A536F23F00103536714
:1013F800FFF7DAF80546314B5B6F13F0020F06D0A2
:10140800FFF7D2F8401B0228F5D90320EAE0236849
:1014180013F0040F7ED0294B1B6C13F0805F1ED194
:10142800264B1A6C42F080521A641B6C03F08053EE
:101438000193019B0125224B1B6813F4807F10D078
:10144800A368012B21D0002B3CD11C4B1A6F22F032
:1014580001021A671A6F22F004021A671AE00025BF
:10146800E9E7174A136843F480731360FFF79CF8A1
:101478000646134B1B6813F4807FE1D1FFF794F8FD
:10148800801B6428F5D90320ACE00C4A136F43F0A5
:1014980001031367A3685BB3FFF786F80646074B9B
:1014A8001B6F13F0020F34D1FFF77EF8801B41F257
:1014B80088339842F3D9032094E000BF00380240F3
:1014C80000700040052B09D0484B1A6F22F001022A
:1014D8001A671A6F22F004021A67DBE7434B1A6F88
:1014E80042F004021A671A6F42F001021A67D1E744
:1014F800FFF75AF806463D4B1B6F13F0020F08D052
:10150800FFF752F8801B41F288339842F3D9032041
:1015180068E0F5B9A369002B63D0344A926802F0F9
:101528000C02082A60D0022B19D0304A136823F025
:1015380080731360FFF738F804462C4B1B6813F0D0
:10154800007F48D0FFF730F8001B0228F5D90320A8
:1015580048E0264A136C23F080531364DAE7234AE1
:10156800136823F080731360FFF71EF805461F4BBE
:101578001B6813F0007F06D0FFF716F8401B0228FF
:10158800F5D903202EE0E369226A1343626A43EA2D
:101598008213A26A5208013A43EA0243E26A43EA22
:1015A8000263226B43EA0273104A5360136843F0E4
:1015B80080731360FEF7F8FF04460C4B1B6813F0AA
:1015C800007F06D1FEF7F0FF001B0228F5D90320A3
:1015D80008E0002006E0002004E001207047012018
:1015E80000E0002002B070BD0120FBE70038024097
:1015F800264B9B6803F00C03042B44D0082B01D026
:10160800234870472DE9F04B204B5A6802F03F02FF
:101618005B6813F4800F13D01C4B5968C1F3881111
:1016280000231C48A1FB0001FEF702FE174B5B6874
:10163800C3F3014301335B00B0FBF3F0BDE8F08B6B
:10164800124B5B68C3F388131E4600275C01002514
:10165800E41A65EB0705A90141EA9461A001001BA2
:1016680061EB0501CB0043EA5073C400A01943EBBA
:1016780007018B0243EA905384022046194600234F
:10168800FEF7D6FDD2E70348704700BF0038024096
:101698000024F40040787D01002800F0A28070B595
:1016A8000446524B1B6803F00F038B420CD24F4A7F
:1016B800136823F00F030B431360136803F00F0341
:1016C8008B4201D0012070BD236813F0020F17D0A0
:1016D80013F0040F04D0464A936843F4E053936030
:1016E800236813F0080F04D0414A936843F4604319
:1016F80093603F4A936823F0F003A0680343936024
:101708000D46236813F0010F31D06368012B20D0F8
:10171800022B25D0364A126812F0020F63D03449E2
:101728008A6822F0030213438B60FEF73DFF0646EA
:101738002F4B9B6803F00C036268B3EB820F16D043
:10174800FEF732FF801B41F288339842F0D903201C
:10175800B9E7274A126812F4003FE0D10120B2E746
:10176800234A126812F0007FD9D10120ABE71F4B42
:101778001B6803F00F03AB420CD91C4A136823F013
:101788000F032B431360136803F00F03AB4201D020
:10179800012098E7236813F0040F06D0144A9368D1
:1017A80023F4E053E1680B439360236813F0080FB8
:1017B80007D00F4A936823F46043216943EAC103C1
:1017C8009360FFF715FF0A4B9B68C3F30313094A9D
:1017D800D35CD840084B18600020FEF7A9FE002013
:1017E80071E70120704701206DE700BF003C02400F
:1017F80000380240601D000810000020014B1868E6
:10180800704700BF1000002000B585B01E481F4B70
:1018180003604FF480334360002383600122026138
:1018280083610362C3621A498162C3600221C16194
:1018380002634361FEF756FFB0B90023009301230A
:1018480001930723029369460F48FFF759F880B9B7
:10185800052300930223019369460B48FFF750F8CC
:1018680060B905B05DF804FB4A210A4800F00AF99E
:10187800E3E75421074800F005F9E9E75D21054849
:1018880000F000F9EDE700BF8400002000200140CF
:101898000100000F781D000802681E4B9A4200D014
:1018A800704730B587B0044603F58C335A6C42F460
:1018B80080725A645B6C03F480730093009B21234D
:1018C8000193032302930025039501A91248FFF70A
:1018D80071FB1248124B036045608560C5604FF488
:1018E800806303614FF4006343614FF400538361E5
:1018F8004FF48073C36105624562FFF7CDF920B9E3
:10190800064BA3639C6307B030BD8521054800F0F2
:10191800B9F8F5E70020014000000240CC000020A3
:1019280010640240781D000800B583B0194B1A6B8B
:1019380042F480021A631B6B03F480030193019B3A
:101948001548164B036000234360802282604FF4E1
:101958000072C2604FF48062026143618361C361B7
:1019680003620422426203228262C3620363FFF7B6
:1019780093F950B9002211463820FFF7A9F838200A
:10198800FFF7D8F803B05DF804FB5121044800F0D4
:1019980079F8EFE7003802402C0100202864024063
:1019A800881D000810B588B0134B1A6B42F001026D
:1019B8001A631A6B02F001020192019A1A6B42F043
:1019C80008021A631B6B03F008030293029B0B4C7B
:1019D8000022F0212046FFF7DDFBF02303930123CB
:1019E8000493002305930323069303A92046FFF7D6
:1019F800E1FA08B010BD00BF00380240000C0240F8
:101A080010B51C4C238807EE103A1B4B93ED006A67
:101A1800B8EEC77A27EE067AD3ED016A2379C7EEC6
:101A2800267A04EB8303C3ED027A628807EE902AD4
:101A3800F8EEE77A67EE867A87EEA67A83ED0B7A78
:101A48000022F0210D48FFF7A5FB23790133DBB213
:101A58002371082B01D900222271064C2179012219
:101A680009010648FFF796FB022221460448FEF7C3
:101A780063FE10BD3000002008000020000C02406A
:101A880084000020FEE7000000B595B02D4B1A6CCD
:101A980042F080521A641B6C03F080530093009B41
:101AA800294B1A6842F440421A601B6803F4404309
:101AB8000193019B0223079301220A9210220B92A1
:101AC8000D9300220E9208220F92D82210921193A1
:101AD800129307A8FFF7A2FB38BBFFF761FB40BBD7
:101AE8000F23029302230393002304934FF4A0537C
:101AF80005934FF480530693072102A8FFF7CCFD06
:101B0800D8B9FFF77BFE114BA3FB00308009FFF724
:101B18001DF80420FFF730F8002211464FF0FF307F
:101B2800FEF7D6FF15B05DF804FBA2210848FFF7C1
:101B3800A9FFA9210648FFF7A5FFB7210448FFF729
:101B4800A1FF00BF0038024000700040D34D621072
:101B5800981D000808B5FEF70FFDFFF795FFFFF782
:101B680021FFFFF7E1FEFFF74FFE064C2179012226
:101B780009010548FFF70EFB022221460348FEF73C
:101B8800DBFDFEE730000020000C0240840000204E
:101B980000B583B0214B1A6C42F080521A641A6C5B
:101BA80002F080520092009A5A6C42F480425A64C1
:101BB8005B6C03F480430193019B0320FEF776FFDF
:101BC800002211466FF00B00FEF782FF002211463B
:101BD8006FF00A00FEF77CFF002211466FF0090043
:101BE800FEF776FF002211466FF00400FEF770FF43
:101BF800002211466FF00300FEF76AFF002211462B
:101C08006FF00100FEF764FF002211464FF0FF302D
:101C1800FEF75EFF03B05DF804FB00BF003802402A
:101C28007047FEE7FEE7FEE7FEE77047704770473C
:101C380008B5FEF7ADFCFEF7B0FF08BD08B50248D1
:101C4800FFF7CAF808BD00BFCC00002010B40F4A47
:101C5800D2F8883043F47003C2F888300C4B196806
:101C680041F001011960002098601C680949214071
:101C7800196009495960196821F480211960D860F0
:101C88004FF0006393605DF8044B704700ED00E08F
:101C980000380240FFFFF6FE10300024DFF834D091
:101CA800002103E00C4B5B58435004310B480C4BAC
:101CB80042189A42F6D30B4A02E0002342F8043B4A
:101CC800094B9A42F9D3FFF7C1FF00F011F8FFF76B
:101CD80041FF704700000820B81D000800000020E0
:101CE80014000020140000208C010020FEE70000F2
:101CF80070B50D4E0D4CA41BA4100025A54209D1AA
:101D08000B4E0C4C00F018F8A41BA4100025A5429B
:101D180005D170BD56F8253098470135EEE756F8DD
:101D2800253098470135F2E7B01D0008B01D0008BE
:101D3800B01D0008B41D0008F8B500BFF8BC08BC09
:101D48009E467047F8B500BFF8BC08BC9E46704771
:101D58000006101600061016000000000000000023
:101D68000102030406070809000000000102030439
:101D78002E2E2F5372632F6164632E6300000000C0
:101D88002E2E2F5372632F646D612E6300000000A6
:101D98002E2E2F5372632F6D61696E2E6300000023
:081DA800C0E4FF7F0100000010
:041DB0001D02000808
:041DB400F901000829
:101DB8000100000010000000F628544000F07F45A4
:041DC8000024F400FF
:0400000508001CA52E
:00000001FF
