:020000040800F2
:100000000000082039050008D9080008DB080008AE
:10001000DD080008DF080008E10800080000000013
:10002000000000000000000000000000E3080008DD
:10003000E508000800000000E7080008E9080008DB
:100040008905000889050008890500088905000858
:100050008905000889050008890500088905000848
:100060008905000889050008890500088905000838
:100070008905000889050008890500088905000828
:100080008905000889050008890500088905000818
:100090008905000889050008890500088905000808
:1000A00089050008890500088905000889050008F8
:1000B00089050008890500088905000889050008E8
:1000C00089050008890500088905000889050008D8
:1000D00089050008890500088905000889050008C8
:1000E00089050008890500088905000889050008B8
:1000F00089050008890500088905000889050008A8
:100100008905000889050008890500088905000897
:100110008905000889050008890500088905000887
:100120008905000889050008890500088905000877
:100130008905000889050008890500088905000867
:100140008905000889050008890500088905000857
:100150008905000889050008890500088905000847
:100160008905000889050008890500088905000837
:1001700089050008890500088905000800000000BD
:100180008905000889050008890500088905000817
:100190008905000889050008890500088905000807
:1001A00089050008890500088905000889050008F7
:1001B00089050008890500088905000889050008E7
:1001C000890500088905000800000000890500086D
:1001D00089050008890500088905000889050008C7
:1001E00089050008890500088905000889050008B7
:0801F0008905000889050008DB
:1001F80010B5054C237833B9044B13B10448AFF359
:1002080000800123237010BD0C00002000000000B6
:10021800AC17000808B5034B1BB103490348AFF3FB
:10022800008008BD0000000010000020AC17000886
:1002380053B94AB9002908BF00281CBF4FF0FF3145
:100248004FF0FF3000F072B9ADF1080C6DE904CE43
:1002580000F006F8DDF804E0DDE9022304B0704799
:100268002DE9F047089E04468846002B4BD18A4268
:10027800154667D9B2FA82F24AB1C2F1200701FAEB
:1002880002F320FA07F7954047EA030894404FEA3B
:10029800154E230CB8FBFEF71FFA85FC0EFB1788DA
:1002A80043EA084307FB0CF1994209D9EB1807F117
:1002B800FF3080F01B81994240F21881023F2B44A5
:1002C8005B1AA4B2B3FBFEF00EFB103344EA0344FE
:1002D80000FB0CFCA44509D92C1900F1FF3380F070
:1002E8000781A44540F2048102382C4440EA0740C3
:1002F800A4EB0C0400271EB1D4400023C6E9004338
:100308003946BDE8F0878B4209D9002E00F0EB8012
:100318000027C6E9000138463946BDE8F087B3FA38
:1003280083F7002F47D18B4202D3824200F2FA8032
:10033800841A61EB030301209846002EE0D0C6E939
:100348000048DDE702B9FFDEB2FA82F2002A40F087
:100358008F80491B4FEA154E1FFA85F80127B1FB1C
:10036800FEFC230C0EFB1C1143EA014308FB0CF1B5
:10037800994207D9EB180CF1FF3002D2994200F2EA
:10038800CD808446591AA3B2B1FBFEF00EFB1014BF
:1003980043EA044408FB00F8A04507D92C1900F1EA
:1003A800FF3302D2A04500F2B6801846A4EB080439
:1003B80040EA0C409FE7C7F1200CBB4022FA0CFE34
:1003C8004EEA030E01FA07F420FA0CF521FA0CF3B1
:1003D8004FEA1E482543B3FBF8F92C0C08FB1933E8
:1003E8001FFA8EFA44EA034309FB0AF49C4202FA14
:1003F80007F200FA07F10BD91EEB030309F1FF30EE
:1004080080F087809C4240F28480A9F102097344FD
:100418001B1BADB2B3FBF8F008FB103345EA0344ED
:1004280000FB0AFAA24508D91EEB040400F1FF33C9
:100438006BD2A24569D90238744440EA0940A0FB4E
:100448000289A4EB0A044C45C2464B4654D351D00A
:10045800002E69D0B1EB0A0564EB030404FA0CFC26
:10046800FD40FC404CEA0505C6E90054002747E773
:10047800C2F1200320FA03F7954001FA02F021FAAD
:1004880003F34FEA154E3843010CB3FBFEF71FFA8E
:1004980085F80EFB173341EA034107FB08F38B424B
:1004A80004FA02F407D9691807F1FF3C2FD28B42EE
:1004B8002DD9023F2944CB1A81B2B3FBFEF00EFBC3
:1004C800103341EA034100FB08F38B4207D969184E
:1004D80000F1FF3C17D28B4215D902382944C91ABA
:1004E80040EA07473BE73746304609E70746E7E66D
:1004F8001846FBE64145ABD2B8EB020A69EB0E029F
:1005080001381346A4E76046E9E7184695E76746C9
:10051800D1E781467CE702382C4447E7ACF1020C6E
:100528002B442FE7384608E73746E9E6704700BF0F
:10053800DFF834D0002103E00C4B5B584350043102
:100548000B480C4B42189A42F6D30B4A02E00023A0
:1005580042F8043B094B9A42F9D300F0C7F901F07D
:10056800FDF800F0EDF87047000008202818000892
:10057800000000200C0000200C0000207C0000205F
:10058800FEE70000F0B58BB0254B1A6B42F0040271
:100598001A631A6B02F004020192019A1A6B42F074
:1005A80001021A631A6B02F001020292029A1A6B94
:1005B80042F020021A631A6B02F020020392039A97
:1005C8001A6B42F010021A631B6B03F010030493BA
:1005D800049B144F00224FF44041384600F0C2FDFE
:1005E800114D00224FF42051284600F0BBFD4FF476
:1005F800404305930126069600240794089405A90C
:10060800384600F0BFFC4FF4205305930696079434
:10061800089405A9284600F0B5FC0BB0F0BD00BF52
:10062800003802400014024000100240FEE70000BB
:1006380000B585B01448154B036000234360836000
:10064800036183610362C362114A8262C36001224B
:10065800C2610363426100F04BFA68B90323009357
:1006680001230193002302936946074800F044FBE5
:1006780030B905B05DF804FBCD210648FFF7D6FF79
:10068800D7210448FFF7D2FF2C00002000200140AA
:100698000100000FDC17000800B595B0244B1A6C58
:1006A80042F080521A641B6C03F080530093009B45
:1006B800204A136823F4404343F4804313601368CB
:1006C80003F440430193019B0223079301230A93F8
:1006D80010230B9300230D9307A800F049FDF0B9F0
:1006E8000F2302930021039104910591069102A81A
:1006F80000F07CFFB8B901F02BF80F4BA3FB0030DA
:10070800800900F013FC042000F026FC00221146AA
:100718004FF0FF3000F0D8FB15B05DF804FB9A21CC
:100728000648FFF783FFA8210448FFF77FFF00BFB3
:100738000038024000700040D34D6210DC170008FA
:1007480010B500F01FF9FFF7A7FFFFF71BFFFFF732
:100758006FFF1F4800F0F6F91E4C01224FF40061AC
:10076800204600F0FFFC00224FF48051204600F0A4
:10077800F9FC04F5806400224FF48041204600F023
:10078800F1FC00224FF40041204600F0EBFC0A2166
:100798000F4800F053FA0028F9D10D4C204600F01C
:1007A800A8FA80B20C4B188007EE900AF8EEE77AA8
:1007B8009FED0A7A67EE877ADFED096A87EEA67AF7
:1007C800084B83ED007A204600F0BCF9DFE700BF54
:1007D8002C00002000100240280000203333534032
:1007E80000F07F457400002000B583B0214B1A6CDF
:1007F80042F080521A641A6C02F080520092009AF9
:100808005A6C42F480425A645B6C03F4804301934F
:10081800019B032000F046FB002211466FF00B00FD
:1008280000F052FB002211466FF00A0000F04CFB6A
:10083800002211466FF0090000F046FB0022114625
:100848006FF0040000F040FB002211466FF0030037
:1008580000F03AFB002211466FF0010000F034FB73
:10086800002211464FF0FF3000F02EFB03B05DF878
:1008780004FB00BF003802400268124B9A4200D0C5
:10088800704730B587B003F58C335A6C42F48072E8
:100898005A645B6C03F480730093009B01230193FB
:1008A800032502950024039401A9074800F06AFB78
:1008B800082301930295039401A9044800F062FB00
:1008C80007B030BD0020014000080240000002408F
:1008D8007047FEE7FEE7FEE7FEE7704770477047A0
:1008E80008B500F05BF800F048FB08BD10B40F4AEB
:1008F800D2F8883043F47003C2F888300C4B19687A
:1009080041F001011960002098601C6809492140E4
:10091800196009495960196821F480211960D86063
:100928004FF0006393605DF8044B704700ED00E002
:1009380000380240FFFFF6FE1030002410B50446D0
:100948000E4B18784FF47A73B3FBF0F30C4A106827
:10095800B0FBF3F000F0EAFA68B90F2C01D90120D6
:100968000AE0002221464FF0FF3000F0ADFA034BB9
:100978005C60002000E0012010BD00BF04000020E2
:100988000000002008B5032000F08CFA0020FFF7D3
:10099800D5FFFFF729FF002008BD0000034A1168B2
:1009A800034B1B780B441360704700BF780000208E
:1009B80004000020014B1868704700BF7800002031
:1009C800494B5A6822F440325A605A6841680A43CF
:1009D8005A600268536823F480735360026853684E
:1009E800016943EA012353600268536823F04073A6
:1009F80053600268536881680B43536002689368C8
:100A080023F40063936002689368C1680B439360A2
:100A1800826A364B9A4249D00268936823F0706321
:100A2800936002689368816A0B43936002689368D5
:100A380023F04053936002689368C16A0B43936044
:100A48000268936823F002039360026893688169DF
:100A580043EA41039360036A002B32D1026853686A
:100A680023F4006353600268D36A23F47003D362EB
:100A78000168CB6AC269013A43EA0253CB62026851
:100A8800936823F40073936002689368016B43EAE8
:100A9800412393600268936823F48063936002683B
:100AA8009368416943EA81239360704702689368B9
:100AB80023F0706393600268936823F04053936057
:100AC800BEE70268536843F40063536002685368E2
:100AD80023F46043536001684B68426A013A43EA71
:100AE80042334B60BFE700BF002301400100000F05
:100AF80020B310B50446036C43B1236C13F0100FF8
:100B08000AD00120002384F83C3010BD436480F8EB
:100B18003C30FFF7B1FEF0E7226C094B134043F07D
:100B2800020323642046FFF74BFF00206064236C18
:100B380023F0030343F001032364E3E70120704734
:100B4800FDEEFFFF82B00023019390F83C30012BAB
:100B580061D0012380F83C3003689A6812F0010FD5
:100B680013D19A6842F001029A602F4B1B682F4AF2
:100B7800A2FB03239B0C03EB4303019302E0019BBD
:100B8800013B0193019B002BF9D10268936813F094
:100B9800010F42D0016C264B0B4043F48073036471
:100BA800536813F4806F05D0036C23F4405343F467
:100BB80080530364036C13F4805F19D0436C23F0F3
:100BC80006034364002380F83C306FF0220313606F
:100BD800184B5B6813F01F0F0DD103689A6812F069
:100BE800405F1DD19A6842F080429A60002015E06B
:100BF80000234364E6E703680F4A934201D00020CC
:100C08000CE09A6812F0405F0CD19A6842F080427A
:100C18009A60002002E0022000E0002002B0704745
:100C28000020FBE70020F9E70000002083DE1B43DB
:100C3800FEF8FFFF002301400020014003689A6886
:100C480012F4806F03D09B6813F4807F1CD170B5B9
:100C58000D460446FFF7AEFE064623681A6812F0F2
:100C6800020F1AD1B5F1FF3FF7D025B1FFF7A2FE69
:100C7800801BA842F1D9236C43F0040323640023AA
:100C880084F83C3003202DE0036C43F02003036418
:100C9800002380F83C30012070476FF012021A6080
:100CA800236C43F40073236423689A6812F0405F4E
:100CB80017D1A269BAB9DA6A12F4700F03D09B6827
:100CC80013F4806F11D1236C23F480732364236C95
:100CD80013F4805F0BD1236C43F0010323640020DD
:100CE80000E0002070BD0020FCE70020FAE70020AB
:100CF800F8E70368D86C704730B482B000230193DA
:100D080090F83C30012B00F0C080012380F83C3083
:100D18000B68092B22D90568EA689BB203EB4303E9
:100D28001E3B072404FA03F322EA0303EB600B6873
:100D3800574A93420BD00568EA688C689BB203EB6C
:100D480043031E3B04FA03F31343EB601BE0026802
:100D5800D3688C6843EA0463D36014E005682A69A1
:100D68009BB203EB4303072404FA03F322EA0303C9
:100D78002B6105682A698C680B8803EB430304FA26
:100D880003F313432B614B68062B24D805686A6B61
:100D980003EB8303053B1F2404FA03F322EA03034E
:100DA8006B6305686A6B4B6803EB8303053B0C8830
:100DB80004FA03F313436B630268364B9A423AD042
:100DC8000268344B9A423FD0002380F83C301846E2
:100DD80002B030BC70470C2B16D805682A6B03EBA1
:100DE8008303233B1F2404FA03F322EA03032B6340
:100DF80005682A6B4B6803EB8303233B0C8804FAD2
:100E080003F313432B63D7E70568EA6A03EB83030D
:100E1800413B1F2404FA03F322EA0303EB6205684B
:100E2800EA6A4B6803EB8303413B0C8804FA03F33B
:100E38001343EB62C0E70B68122BC1D1164A536803
:100E480043F480035360BBE70B68114A112B18BFAA
:100E58009342B9D1104A536843F4000353600A68B7
:100E68000B4B9A42B0D10D4B1B680D4AA2FB0323D2
:100E78009B0C03EB83035A00019202E0019B013BA8
:100E88000193019B002BF9D19EE70220A0E700BF48
:100E98001200001000200140002301400000002043
:100EA80083DE1B430649CB6823F4E0631B041B0C59
:100EB800000200F4E0600343024A1A43CA60704724
:100EC80000ED00E00000FA0530B4154BDB68C3F311
:100ED8000223C3F10704042C28BF04241D1D062D7A
:100EE80014D9033B4FF0FF3505FA04F421EA040155
:100EF800994005FA03F322EA03031943002807DBA4
:100F08000901C9B2074B195430BC70470023E9E7FF
:100F180000F00F000901C9B2034B1954F4E700BFF0
:100F280000ED00E000E400E014ED00E00138B0F16D
:100F3800807F0AD2064B5860064AF02182F82310B7
:100F48000020986007221A6070470120704700BF90
:100F580010E000E000ED00E0042805D0054A136821
:100F680023F0040313607047024A136843F0040334
:100F78001360704710E000E0704708B5FFF7FCFF0A
:100F880008BD000000230F2B00F2E280F0B482B00D
:100F980039E0092200E00022B2403A4302346D4EA3
:100FA80046F824206C4A1468EA4302EA04064F68AB
:100FB80017F4803F01D045EA0406674C2660646850
:100FC80002EA04064F6817F4003F01D045EA040618
:100FD800614C6660A46802EA04064F6817F4801F33
:100FE80001D045EA04065C4CA660E46822404E68DD
:100FF80016F4001F01D045EA0402574CE2600133A1
:101008000F2B00F2A28001229A400C6804EA020524
:10101800AA42F4D14C68122C18BF022C10D1DE0859
:10102800083650F826C003F00704A7000F24BC4078
:101038002CEA040C0C69BC4044EA0C0440F8264035
:1010480004685F000326BE40F64306EA040C4C68B9
:1010580004F00304BC4044EA0C0404604C6804F146
:10106800FF3C112C18BFBCF1010F01D9122C11D172
:10107800846806EA040CCC68BC4044EA0C0484602A
:10108800446824EA020C4C68C4F300129A4042EA0D
:101098000C024260C26816408A68BA403243C26095
:1010A8004A6812F0805FAAD02C4A546C44F48044F9
:1010B8005464526C02F480420192019A9C08A61C66
:1010C800244A52F8267003F0030296000F22B24019
:1010D80027EA0207224A90423FF45DAF02F5806298
:1010E800904222D002F58062904220D002F58062C0
:1010F80090421ED002F5806290421CD002F58062B8
:1011080090421AD002F58062904218D002F58062AF
:10111800904216D002F58062904214D002F58062A7
:1011280090423FF436AF0A2236E7012234E7022222
:1011380032E7032230E704222EE705222CE70622B5
:101148002AE7072228E7082226E702B0F0BC704702
:10115800704700BF00380140003C014000380240A1
:101168000000024012B9090481617047816170472B
:10117800002800F0DC8170B582B00446036813F0E3
:10118800010F29D0A24B9B6803F00C03042B1AD043
:101198009F4B9B6803F00C03082B0FD06368B3F5D3
:1011A800803F40D0002B54D1994B1A6822F48032EA
:1011B8001A601A6822F480221A6039E0944B5B683E
:1011C80013F4800FEAD0924B1B6813F4003F03D04E
:1011D8006368002B00F0AD81236813F0020F75D00F
:1011E8008B4B9B6813F00C0F5ED0894B9B6803F008
:1011F8000C03082B53D0E368002B00F08A80844A44
:10120800136843F001031360FFF7D4FB0546804BD6
:101218001B6813F0020F73D1FFF7CCFB401B0228A9
:10122800F5D9032088E17A4A136843F480331360C0
:1012380063682BB3FFF7BEFB0546754B1B6813F4B9
:10124800003FC9D1FFF7B6FB401B6428F5D903203E
:1012580072E1B3F5A02F09D06D4B1A6822F48032E1
:101268001A601A6822F480221A60E1E7684B1A684B
:1012780042F480221A601A6842F480321A60D7E772
:10128800FFF798FB0546624B1B6813F4003FA3D099
:10129800FFF790FB401B6428F5D903204CE15C4B19
:1012A8005B6813F4800FA6D1594B1B6813F0020F2B
:1012B80004D0E368012B01D001203DE1544A1368B2
:1012C80023F0F803216943EAC1031360236813F08C
:1012D800080F46D0636983B34D4A536F43F0010347
:1012E8005367FFF767FB0546494B5B6F13F0020F27
:1012F80037D1FFF75FFB401B0228F5D903201BE11C
:10130800434A136823F0F803216943EAC1031360D1
:10131800DCE73F4A136823F001031360FFF74AFB39
:1013280005463B4B1B6813F0020FCFD0FFF742FB7B
:10133800401B0228F5D90320FEE0354A536F23F0FD
:1013480001035367FFF736FB0546314B5B6F13F01C
:10135800020F06D0FFF72EFB401B0228F5D9032009
:10136800EAE0236813F0040F7ED0294B1B6C13F0BE
:10137800805F1ED1264B1A6C42F080521A641B6C97
:1013880003F080530193019B0125224B1B6813F442
:10139800807F10D0A368012B21D0002B3CD11C4B9F
:1013A8001A6F22F001021A671A6F22F004021A67F4
:1013B8001AE00025E9E7174A136843F480731360BD
:1013C800FFF7F8FA0646134B1B6813F4807FE1D148
:1013D800FFF7F0FA801B6428F5D90320ACE00C4A2B
:1013E800136F43F001031367A3685BB3FFF7E2FAD7
:1013F8000646074B1B6F13F0020F34D1FFF7DAFADA
:10140800801B41F288339842F3D9032094E000BF4F
:101418000038024000700040052B09D0484B1A6F75
:1014280022F001021A671A6F22F004021A67DBE73A
:10143800434B1A6F42F004021A671A6F42F0010216
:101448001A67D1E7FFF7B6FA06463D4B1B6F13F054
:10145800020F08D0FFF7AEFA801B41F2883398429A
:10146800F3D9032068E0F5B9A369002B63D0344AA7
:10147800926802F00C02082A60D0022B19D0304A78
:10148800136823F080731360FFF794FA04462C4B1B
:101498001B6813F0007F48D0FFF78CFA001B022866
:1014A800F5D9032048E0264A136C23F080531364CF
:1014B800DAE7234A136823F080731360FFF77AFA98
:1014C80005461F4B1B6813F0007F06D0FFF772FA22
:1014D800401B0228F5D903202EE0E369226A134352
:1014E800626A43EA8213A26A5208013A43EA024353
:1014F800E26A43EA0263226B43EA0273104A5360CA
:10150800136843F080731360FFF754FA04460C4BDA
:101518001B6813F0007F06D1FFF74CFA001B022866
:10152800F5D9032008E0002006E0002004E00120AF
:101538007047012000E0002002B070BD0120FBE7E9
:1015480000380240264B9B6803F00C03042B44D060
:10155800082B01D0234870472DE9F04B204B5A68DF
:1015680002F03F025B6813F4800F13D01C4B5968DC
:10157800C1F3881100231C48A1FB0001FEF758FEA7
:10158800174B5B68C3F3014301335B00B0FBF3F017
:10159800BDE8F08B124B5B68C3F388131E46002727
:1015A8005C010025E41A65EB0705A90141EA94618D
:1015B800A001001B61EB0501CB0043EA5073C40096
:1015C800A01943EB07018B0243EA9053840220469B
:1015D80019460023FEF72CFED2E70348704700BFE8
:1015E800003802400024F40040787D01002800F013
:1015F800A28070B50446524B1B6803F00F038B4260
:101608000CD24F4A136823F00F030B43136013687F
:1016180003F00F038B4201D0012070BD236813F043
:10162800020F17D013F0040F04D0464A936843F40E
:10163800E0539360236813F0080F04D0414A93687D
:1016480043F4604393603F4A936823F0F003A06833
:10165800034393600D46236813F0010F31D063688C
:10166800012B20D0022B25D0364A126812F0020F27
:1016780063D034498A6822F0030213438B60FFF772
:1016880099F906462F4B9B6803F00C036268B3EB8D
:10169800820F16D0FFF78EF9801B41F288339842EB
:1016A800F0D90320B9E7274A126812F4003FE0D1C5
:1016B8000120B2E7234A126812F0007FD9D1012035
:1016C800ABE71F4B1B6803F00F03AB420CD91C4A56
:1016D800136823F00F032B431360136803F00F0301
:1016E800AB4201D0012098E7236813F0040F06D01D
:1016F800144A936823F4E053E1680B43936023682A
:1017080013F0080F07D00F4A936823F46043216948
:1017180043EAC1039360FFF715FF0A4B9B68C3F3C5
:101728000313094AD35CD840084B18600020FFF720
:1017380005F9002071E70120704701206DE700BF1F
:10174800003C024000380240C41700080000002096
:10175800014B1868704700BF0000002070B50D4E9F
:101768000D4CA41BA4100025A54209D10B4E0C4C0E
:1017780000F018F8A41BA4100025A54205D170BDDF
:1017880056F8253098470135EEE756F82530984742
:101798000135F2E720180008201800082018000872
:1017A80024180008F8B500BFF8BC08BC9E4670476E
:0C17B800F8B500BFF8BC08BC9E467047A6
:1017C40000000000000000000102030406070809ED
:1017D4000000000001020304443A2F50726F677244
:1017E400616D732F6865726F6B755F617070732FB5
:1017F400536F6C6172436F6E74726F6C2F53544DE0
:1018040033325F48414C2F5372632F6D61696E2EE2
:04181400630000006D
:0818180050EAFF7F010000000F
:041820001D0200089D
:04182400F9010008BE
:0C1828000024F40001000000100000008B
:0400000508000539B1
:00000001FF
